{
  "contractName": "Subscribers",
  "abi": [
    {
      "constant": true,
      "inputs": [
        {
          "name": "",
          "type": "bytes32"
        }
      ],
      "name": "subs",
      "outputs": [
        {
          "name": "expires",
          "type": "uint256"
        },
        {
          "name": "addy",
          "type": "address"
        }
      ],
      "payable": false,
      "stateMutability": "view",
      "type": "function"
    },
    {
      "constant": true,
      "inputs": [],
      "name": "owner",
      "outputs": [
        {
          "name": "",
          "type": "address"
        }
      ],
      "payable": false,
      "stateMutability": "view",
      "type": "function"
    },
    {
      "constant": true,
      "inputs": [],
      "name": "monthlyPrice",
      "outputs": [
        {
          "name": "",
          "type": "uint256"
        }
      ],
      "payable": false,
      "stateMutability": "view",
      "type": "function"
    },
    {
      "constant": true,
      "inputs": [],
      "name": "annualPrice",
      "outputs": [
        {
          "name": "",
          "type": "uint256"
        }
      ],
      "payable": false,
      "stateMutability": "view",
      "type": "function"
    },
    {
      "inputs": [],
      "payable": false,
      "stateMutability": "nonpayable",
      "type": "constructor"
    },
    {
      "anonymous": false,
      "inputs": [
        {
          "indexed": false,
          "name": "emailHash",
          "type": "bytes32"
        },
        {
          "indexed": false,
          "name": "mode",
          "type": "uint8"
        },
        {
          "indexed": false,
          "name": "subber",
          "type": "address"
        }
      ],
      "name": "Subscribed",
      "type": "event"
    },
    {
      "constant": false,
      "inputs": [
        {
          "name": "_owner",
          "type": "address"
        }
      ],
      "name": "changeOwner",
      "outputs": [],
      "payable": false,
      "stateMutability": "nonpayable",
      "type": "function"
    },
    {
      "constant": false,
      "inputs": [
        {
          "name": "_price",
          "type": "uint256"
        }
      ],
      "name": "setMonthlyPrice",
      "outputs": [],
      "payable": false,
      "stateMutability": "nonpayable",
      "type": "function"
    },
    {
      "constant": false,
      "inputs": [
        {
          "name": "_price",
          "type": "uint256"
        }
      ],
      "name": "setAnnualPrice",
      "outputs": [],
      "payable": false,
      "stateMutability": "nonpayable",
      "type": "function"
    },
    {
      "constant": false,
      "inputs": [
        {
          "name": "_monthOrYear",
          "type": "uint8"
        },
        {
          "name": "_email",
          "type": "bytes32"
        }
      ],
      "name": "subscribeMe",
      "outputs": [],
      "payable": true,
      "stateMutability": "payable",
      "type": "function"
    },
    {
      "constant": false,
      "inputs": [
        {
          "name": "_subscriber",
          "type": "address"
        },
        {
          "name": "_monthOrYear",
          "type": "uint8"
        },
        {
          "name": "_email",
          "type": "bytes32"
        }
      ],
      "name": "subscribe",
      "outputs": [],
      "payable": true,
      "stateMutability": "payable",
      "type": "function"
    },
    {
      "constant": false,
      "inputs": [],
      "name": "withdraw",
      "outputs": [],
      "payable": false,
      "stateMutability": "nonpayable",
      "type": "function"
    },
    {
      "constant": false,
      "inputs": [
        {
          "name": "_subscriber",
          "type": "address"
        },
        {
          "name": "_monthOrYear",
          "type": "uint8"
        },
        {
          "name": "_email",
          "type": "bytes32"
        }
      ],
      "name": "freeSub",
      "outputs": [],
      "payable": false,
      "stateMutability": "nonpayable",
      "type": "function"
    },
    {
      "constant": true,
      "inputs": [
        {
          "name": "_email",
          "type": "bytes32"
        }
      ],
      "name": "checkExpires",
      "outputs": [
        {
          "name": "",
          "type": "uint256"
        }
      ],
      "payable": false,
      "stateMutability": "view",
      "type": "function"
    }
  ],
  "bytecode": "0x6080604052662386f26fc1000060015567016345785d8a000060025534801561002757600080fd5b5060008054600160a060020a0319163317905561058d806100496000396000f3006080604052600436106100b95763ffffffff7c01000000000000000000000000000000000000000000000000000000006000350416633ccfd60b81146100be57806353cfdda3146100d55780636b82b985146100ed578063834614dd146101265780638da5cb5b146101505780638e236cea146101815780639a47700f14610199578063a06c5a24146101c3578063a6f9dae1146101d8578063a78810f8146101f9578063b80d31811461020a578063f40c08431461021f575b600080fd5b3480156100ca57600080fd5b506100d361023c565b005b3480156100e157600080fd5b506100d3600435610291565b3480156100f957600080fd5b506101056004356102ad565b60408051928352600160a060020a0390911660208301528051918290030190f35b34801561013257600080fd5b506100d3600160a060020a036004351660ff602435166044356102cf565b34801561015c57600080fd5b506101656103af565b60408051600160a060020a039092168252519081900360200190f35b34801561018d57600080fd5b506100d36004356103be565b3480156101a557600080fd5b506101b16004356103da565b60408051918252519081900360200190f35b3480156101cf57600080fd5b506101b16103ec565b3480156101e457600080fd5b506100d3600160a060020a03600435166103f2565b6100d360ff60043516602435610440565b34801561021657600080fd5b506101b161044f565b6100d3600160a060020a036004351660ff60243516604435610455565b600054600160a060020a0316331461025357600080fd5b60008054604051600160a060020a0390911691303180156108fc02929091818181858888f1935050505015801561028e573d6000803e3d6000fd5b50565b600054600160a060020a031633146102a857600080fd5b600155565b60036020526000908152604090208054600190910154600160a060020a031682565b60008054600160a060020a031633146102e757600080fd5b8260ff166001146102fc576301e18558610301565b622820725b60408051808201825263ffffffff929092164281018352600160a060020a03878116602080860182815260008981526003835286902096518755516001909601805473ffffffffffffffffffffffffffffffffffffffff19169690931695909517909155825186815260ff8816948101949094528383015290519092507f719830fb37b68fad5b2f22633c1634631dacb7671ec1eeb33636595331f5042e916060908290030190a150505050565b600054600160a060020a031681565b600054600160a060020a031633146103d557600080fd5b600255565b60009081526003602052604090205490565b60015481565b600054600160a060020a0316331461040957600080fd5b61041161023c565b6000805473ffffffffffffffffffffffffffffffffffffffff1916600160a060020a0392909216919091179055565b61044b338383610455565b5050565b60025481565b6000818152600360205260408120549080821515610471574292505b8460ff1660011461048457600254610488565b6001545b91503482111561049757600080fd5b8460ff166001146104ac576301e185586104b1565b622820725b60408051808201825263ffffffff929092168581018352600160a060020a03898116602080860182815260008b81526003835286902096518755516001909601805473ffffffffffffffffffffffffffffffffffffffff19169690931695909517909155825188815260ff8a16948101949094528383015290519092507f719830fb37b68fad5b2f22633c1634631dacb7671ec1eeb33636595331f5042e916060908290030190a15050505050505600a165627a7a72305820c44b8f7ec1f67078897b0e0bed165995fee77749c29b0c900793366b0ea29c270029",
  "source": "pragma solidity ^0.4.24;\n\ncontract Subscribers {\n\n    address public owner;\n\n    uint256 public monthlyPrice = 0.01 ether;\n    uint256 public annualPrice = 0.1 ether;\n\n    struct Subscriber {\n        uint256 expires;\n        address addy;\n    }\n\n    mapping (bytes32 => Subscriber) public subs;\n\n    event Subscribed(bytes32 emailHash, uint8 mode, address subber);\n\n    constructor() public {\n        owner = msg.sender;\n    }\n\n    modifier onlyOwner() {\n        require(msg.sender == owner);\n        _;\n    }\n\n    function changeOwner(address _owner) onlyOwner external {\n        withdraw();\n        owner = _owner;\n    }\n\n    function setMonthlyPrice(uint256 _price) onlyOwner external {\n        monthlyPrice = _price;\n    }\n\n    function setAnnualPrice(uint256 _price) onlyOwner external {\n        annualPrice = _price;\n    }\n\n    function subscribeMe(uint8 _monthOrYear, bytes32 _email) external payable {\n        subscribe(msg.sender, _monthOrYear, _email);\n    }\n\n    function subscribe(address _subscriber, uint8 _monthOrYear, bytes32 _email) public payable {\n        \n        // Extend sub if already subbed\n        uint256 from = subs[_email].expires;\n        if (from == 0) {\n            from = now;\n        }\n\n        uint256 requiredPrice = (_monthOrYear == 1) ? monthlyPrice : annualPrice;\n        require(msg.value >= requiredPrice);\n        \n        uint256 requiredDuration = (_monthOrYear == 1) ? 2629746 : 31556952;\n        subs[_email] = Subscriber(from + requiredDuration, _subscriber);\n\n        emit Subscribed(_email, _monthOrYear, _subscriber);\n    }\n\n    function withdraw() onlyOwner public {\n        address(owner).transfer(address(this).balance);\n    }\n\n    function freeSub(address _subscriber, uint8 _monthOrYear, bytes32 _email) onlyOwner external {\n        uint256 requiredDuration = (_monthOrYear == 1) ? 2629746 : 31556952;\n        subs[_email] = Subscriber(now + requiredDuration, _subscriber);\n\n        emit Subscribed(_email, _monthOrYear, _subscriber);\n    }\n\n    function checkExpires(bytes32 _email) public view returns (uint256) {\n        return subs[_email].expires;\n    }\n\n}",
  "sourcePath": "/Users/swader/Dropbox/bitfalls/docs/2018/projekti/fintechfriday/templated-hielo/contracts/Subscribers.sol",
  "compiler": {
    "name": "solc",
    "version": "0.4.24+commit.e67f0147.Emscripten.clang"
  },
  "schemaVersion": "2.0.0",
  "updatedAt": "2018-07-27T09:48:22.807Z"
}